{
  "contractName": "Medical",
  "abi": [
    {
      "inputs": [],
      "stateMutability": "nonpayable",
      "type": "constructor"
    },
    {
      "inputs": [],
      "name": "isAdmin",
      "outputs": [
        {
          "internalType": "bool",
          "name": "",
          "type": "bool"
        }
      ],
      "stateMutability": "view",
      "type": "function"
    },
    {
      "inputs": [],
      "name": "isDoctor",
      "outputs": [
        {
          "internalType": "bool",
          "name": "",
          "type": "bool"
        }
      ],
      "stateMutability": "view",
      "type": "function"
    },
    {
      "inputs": [],
      "name": "isPatient",
      "outputs": [
        {
          "internalType": "bool",
          "name": "",
          "type": "bool"
        }
      ],
      "stateMutability": "view",
      "type": "function"
    },
    {
      "inputs": [
        {
          "internalType": "address",
          "name": "_newDr",
          "type": "address"
        },
        {
          "internalType": "string",
          "name": "_docInfoHash",
          "type": "string"
        }
      ],
      "name": "addDoctor",
      "outputs": [],
      "stateMutability": "nonpayable",
      "type": "function"
    },
    {
      "inputs": [
        {
          "internalType": "address",
          "name": "_newDr",
          "type": "address"
        }
      ],
      "name": "removeDoctor",
      "outputs": [],
      "stateMutability": "nonpayable",
      "type": "function"
    },
    {
      "inputs": [],
      "name": "doctorList",
      "outputs": [
        {
          "internalType": "string[]",
          "name": "",
          "type": "string[]"
        }
      ],
      "stateMutability": "view",
      "type": "function"
    },
    {
      "inputs": [
        {
          "internalType": "address",
          "name": "_newDoctor",
          "type": "address"
        }
      ],
      "name": "givePermission",
      "outputs": [],
      "stateMutability": "nonpayable",
      "type": "function"
    },
    {
      "inputs": [
        {
          "internalType": "address",
          "name": "_newDoctor",
          "type": "address"
        }
      ],
      "name": "removePermission",
      "outputs": [],
      "stateMutability": "nonpayable",
      "type": "function"
    },
    {
      "inputs": [
        {
          "internalType": "address",
          "name": "_drId",
          "type": "address"
        }
      ],
      "name": "checkPermission",
      "outputs": [
        {
          "internalType": "bool",
          "name": "",
          "type": "bool"
        }
      ],
      "stateMutability": "view",
      "type": "function"
    },
    {
      "inputs": [
        {
          "internalType": "string",
          "name": "_patInfoHash",
          "type": "string"
        }
      ],
      "name": "addPatInfo",
      "outputs": [],
      "stateMutability": "nonpayable",
      "type": "function"
    },
    {
      "inputs": [
        {
          "internalType": "address",
          "name": "_id",
          "type": "address"
        }
      ],
      "name": "getPatientinfo",
      "outputs": [
        {
          "internalType": "string",
          "name": "",
          "type": "string"
        }
      ],
      "stateMutability": "view",
      "type": "function"
    },
    {
      "inputs": [],
      "name": "getPatientList",
      "outputs": [
        {
          "internalType": "address[]",
          "name": "",
          "type": "address[]"
        }
      ],
      "stateMutability": "view",
      "type": "function"
    },
    {
      "inputs": [
        {
          "internalType": "string",
          "name": "_recHash",
          "type": "string"
        },
        {
          "internalType": "address",
          "name": "_pat_id",
          "type": "address"
        }
      ],
      "name": "addMedRecord",
      "outputs": [],
      "stateMutability": "nonpayable",
      "type": "function"
    },
    {
      "inputs": [
        {
          "internalType": "string",
          "name": "_recHash",
          "type": "string"
        }
      ],
      "name": "deleteRecord",
      "outputs": [],
      "stateMutability": "nonpayable",
      "type": "function"
    },
    {
      "inputs": [],
      "name": "viewMedRec",
      "outputs": [
        {
          "internalType": "string[]",
          "name": "",
          "type": "string[]"
        }
      ],
      "stateMutability": "view",
      "type": "function"
    },
    {
      "inputs": [
        {
          "internalType": "address",
          "name": "_pat_id",
          "type": "address"
        }
      ],
      "name": "viewMedRecOfPatient",
      "outputs": [
        {
          "internalType": "string[]",
          "name": "",
          "type": "string[]"
        }
      ],
      "stateMutability": "view",
      "type": "function"
    }
  ],
  "bytecode": "0x608060405234801561001057600080fd5b50336000908152602081905260409020805460ff191660011790556114528061003a6000396000f3fe608060405234801561001057600080fd5b50600436106101005760003560e01c8063935c295711610097578063d1ef684611610066578063d1ef68461461023f578063e074bb4714610252578063f1a1d7d514610265578063fbc47d531461027857600080fd5b8063935c2957146101f457806398fc90e9146101fc578063b6db75a01461020f578063b986b6081461022757600080fd5b806357d3a786116100d357806357d3a786146101605780635962b430146101a95780635fcab56f146101c15780637cf1e445146101e157600080fd5b806313d65d3a146101055780631f2a2d13146101235780633d391f7014610136578063503b13541461014b575b600080fd5b61010d61028b565b60405161011a9190610fd8565b60405180910390f35b61010d610131366004611056565b6103d6565b610149610144366004611056565b61053b565b005b6101536105cb565b60405161011a9190611078565b61019961016e366004611056565b3360009081526006602090815260408083206001600160a01b03949094168352929052205460ff1690565b604051901515815260200161011a565b3360009081526002602052604090205460ff16610199565b6101d46101cf366004611056565b61062d565b60405161011a91906110c5565b6101496101ef36600461117b565b6106d9565b61010d610874565b61014961020a366004611056565b610a32565b3360009081526020819052604090205460ff16610199565b3360009081526001602052604090205460ff16610199565b61014961024d3660046111c9565b610ab0565b610149610260366004611056565b610bc1565b610149610273366004611206565b610c4e565b6101496102863660046111c9565b610ce9565b3360009081526002602052604090205460609060ff1615156001146102f75760405162461bcd60e51b815260206004820152601d60248201527f6f6e6c792050617465696e74732063616e2076696577207265636f726400000060448201526064015b60405180910390fd5b33600090815260056020908152604080832080548251818502810185019093528083529193909284015b828210156103cd57838290600052602060002001805461034090611254565b80601f016020809104026020016040519081016040528092919081815260200182805461036c90611254565b80156103b95780601f1061038e576101008083540402835291602001916103b9565b820191906000526020600020905b81548152906001019060200180831161039c57829003601f168201915b505050505081526020019060010190610321565b50505050905090565b6001600160a01b038116600090815260066020908152604080832033845290915290205460609060ff1615156001146104515760405162461bcd60e51b815260206004820152601f60248201527f4f6e6c7920616c6c6f77656420446f63746f722043616e20446f20546861740060448201526064016102ee565b6001600160a01b038216600090815260056020908152604080832080548251818502810185019093528083529193909284015b828210156105305783829060005260206000200180546104a390611254565b80601f01602080910402602001604051908101604052809291908181526020018280546104cf90611254565b801561051c5780601f106104f15761010080835404028352916020019161051c565b820191906000526020600020905b8154815290600101906020018083116104ff57829003601f168201915b505050505081526020019060010190610484565b505050509050919050565b3360009081526002602052604090205460ff16151560011461059a5760405162461bcd60e51b815260206004820152601860248201527713db9b1e4814185d1a595b9d0810d85b88111bc8151a185d60421b60448201526064016102ee565b3360009081526006602090815260408083206001600160a01b0394909416835292905220805460ff19166001179055565b6060600880548060200260200160405190810160405280929190818152602001828054801561062357602002820191906000526020600020905b81546001600160a01b03168152600190910190602001808311610605575b5050505050905090565b6001600160a01b038116600090815260036020526040902080546060919061065490611254565b80601f016020809104026020016040519081016040528092919081815260200182805461068090611254565b80156106cd5780601f106106a2576101008083540402835291602001916106cd565b820191906000526020600020905b8154815290600101906020018083116106b057829003601f168201915b50505050509050919050565b3360009081526020819052604090205460ff1615156001146107365760405162461bcd60e51b815260206004820152601660248201527513db9b1e4810591b5a5b8810d85b88111bc8151a185d60521b60448201526064016102ee565b6001600160a01b03821660009081526001602052604090205460ff1615801561077857506001600160a01b03821660009081526002602052604090205460ff16155b801561079d57506001600160a01b03821660009081526020819052604090205460ff16155b6107e95760405162461bcd60e51b815260206004820152601a60248201527f6164647265737320616c726561647920686173206120726f6c6500000000000060448201526064016102ee565b6001600160a01b0382166000908152600160208181526040808420805460ff191690931790925560049052902061082082826112dc565b5050600780546001810182556000919091527fa66cc928b5edb82af9bd49922954155ab7b0942694bea4ce44661d9a8736c6880180546001600160a01b0319166001600160a01b0392909216919091179055565b60075460609060009067ffffffffffffffff811115610895576108956110d8565b6040519080825280602002602001820160405280156108c857816020015b60608152602001906001900390816108b35790505b5090506000805b60075460ff82161015610a2a576001600060078360ff16815481106108f6576108f661139c565b60009182526020808320909101546001600160a01b0316835282019290925260400190205460ff161515600103610a18576004600060078360ff16815481106109415761094161139c565b60009182526020808320909101546001600160a01b031683528201929092526040019020805461097090611254565b80601f016020809104026020016040519081016040528092919081815260200182805461099c90611254565b80156109e95780601f106109be576101008083540402835291602001916109e9565b820191906000526020600020905b8154815290600101906020018083116109cc57829003601f168201915b50505050508383806109fa906113c8565b945081518110610a0c57610a0c61139c565b60200260200101819052505b80610a22816113e1565b9150506108cf565b509092915050565b3360009081526020819052604090205460ff161515600114610a8f5760405162461bcd60e51b815260206004820152601660248201527513db9b1e4810591b5a5b8810d85b88111bc8151a185d60521b60448201526064016102ee565b6001600160a01b03166000908152600160205260409020805460ff19169055565b3360009081526001602052604090205460ff16158015610ae057503360009081526002602052604090205460ff16155b8015610afc57503360009081526020819052604090205460ff16155b610b485760405162461bcd60e51b815260206004820152601a60248201527f6164647265737320616c726561647920686173206120726f6c6500000000000060448201526064016102ee565b336000908152600360205260409020610b6182826112dc565b5050336000818152600260205260408120805460ff191660019081179091556008805491820181559091527ff3f7a9fe364faab93b216da50a3214154f22a0a2b415b23a84c8169e8b636ee30180546001600160a01b0319169091179055565b3360009081526002602052604090205460ff161515600114610c205760405162461bcd60e51b815260206004820152601860248201527713db9b1e4814185d1a595b9d0810d85b88111bc8151a185d60421b60448201526064016102ee565b3360009081526006602090815260408083206001600160a01b0394909416835292905220805460ff19169055565b3360009081526002602052604090205460ff161515600114610cb25760405162461bcd60e51b815260206004820152601960248201527f4f6e6c792070617465696e747320616464207265636f7264730000000000000060448201526064016102ee565b6001600160a01b038116600090815260056020908152604082208054600181018255908352912001610ce483826112dc565b505050565b33600090815260056020908152604080832080548251818502810185019093528083529192909190849084015b82821015610dc2578382906000526020600020018054610d3590611254565b80601f0160208091040260200160405190810160405280929190818152602001828054610d6190611254565b8015610dae5780601f10610d8357610100808354040283529160200191610dae565b820191906000526020600020905b815481529060010190602001808311610d9157829003601f168201915b505050505081526020019060010190610d16565b50505050905060606000805b8351811015610e9b5784604051602001610de89190611400565b60405160208183030381529060405280519060200120848281518110610e1057610e1061139c565b6020026020010151604051602001610e289190611400565b6040516020818303038152906040528051906020012014610e8957838181518110610e5557610e5561139c565b6020026020010151838381518110610e6f57610e6f61139c565b60200260200101819052508180610e85906113c8565b9250505b80610e93816113c8565b915050610dce565b503360009081526005602090815260409091208351610ebc92850190610ec3565b5050505050565b828054828255906000526020600020908101928215610f09579160200282015b82811115610f095782518290610ef990826112dc565b5091602001919060010190610ee3565b50610f15929150610f19565b5090565b80821115610f15576000610f2d8282610f36565b50600101610f19565b508054610f4290611254565b6000825580601f10610f52575050565b601f016020900490600052602060002090810190610f709190610f73565b50565b5b80821115610f155760008155600101610f74565b60005b83811015610fa3578181015183820152602001610f8b565b50506000910152565b60008151808452610fc4816020860160208601610f88565b601f01601f19169290920160200192915050565b6000602080830181845280855180835260408601915060408160051b870101925083870160005b8281101561102d57603f1988860301845261101b858351610fac565b94509285019290850190600101610fff565b5092979650505050505050565b80356001600160a01b038116811461105157600080fd5b919050565b60006020828403121561106857600080fd5b6110718261103a565b9392505050565b6020808252825182820181905260009190848201906040850190845b818110156110b95783516001600160a01b031683529284019291840191600101611094565b50909695505050505050565b6020815260006110716020830184610fac565b634e487b7160e01b600052604160045260246000fd5b600082601f8301126110ff57600080fd5b813567ffffffffffffffff8082111561111a5761111a6110d8565b604051601f8301601f19908116603f01168101908282118183101715611142576111426110d8565b8160405283815286602085880101111561115b57600080fd5b836020870160208301376000602085830101528094505050505092915050565b6000806040838503121561118e57600080fd5b6111978361103a565b9150602083013567ffffffffffffffff8111156111b357600080fd5b6111bf858286016110ee565b9150509250929050565b6000602082840312156111db57600080fd5b813567ffffffffffffffff8111156111f257600080fd5b6111fe848285016110ee565b949350505050565b6000806040838503121561121957600080fd5b823567ffffffffffffffff81111561123057600080fd5b61123c858286016110ee565b92505061124b6020840161103a565b90509250929050565b600181811c9082168061126857607f821691505b60208210810361128857634e487b7160e01b600052602260045260246000fd5b50919050565b601f821115610ce457600081815260208120601f850160051c810160208610156112b55750805b601f850160051c820191505b818110156112d4578281556001016112c1565b505050505050565b815167ffffffffffffffff8111156112f6576112f66110d8565b61130a816113048454611254565b8461128e565b602080601f83116001811461133f57600084156113275750858301515b600019600386901b1c1916600185901b1785556112d4565b600085815260208120601f198616915b8281101561136e5788860151825594840194600190910190840161134f565b508582101561138c5787850151600019600388901b60f8161c191681555b5050505050600190811b01905550565b634e487b7160e01b600052603260045260246000fd5b634e487b7160e01b600052601160045260246000fd5b6000600182016113da576113da6113b2565b5060010190565b600060ff821660ff81036113f7576113f76113b2565b60010192915050565b60008251611412818460208701610f88565b919091019291505056fea26469706673582212202013b7c804cb0956bac086cd84d3856007b34ecce5b6588d4e2980d23a97c27d64736f6c63430008110033",
  "immutableReferences": {},
  "source": "// SPDX-License-Identifier: MIT\r\npragma solidity ^0.8.0;\r\n\r\ncontract Medical {\r\n    mapping(address => bool) private admin;\r\n    mapping(address => bool) private doctor;\r\n    mapping(address => bool) private patient;\r\n\r\n    mapping(address => string) private patientInfo;\r\n    mapping(address => string) private drInfo; //dr info IPFS\r\n    mapping(address => string[]) private patientRecords;\r\n\r\n    mapping(address => mapping(address => bool)) private access;\r\n\r\n    address[] private Dr_ids;\r\n    address[] private Pateint_ids;\r\n\r\n    //  address public creator;\r\n\r\n    constructor() {\r\n        admin[msg.sender] = true;\r\n        //    creator = msg.sender;\r\n    }\r\n\r\n    //get Admin\r\n\r\n    function isAdmin() public view returns (bool) {\r\n        return admin[msg.sender];\r\n    }\r\n\r\n    function isDoctor() public view returns (bool) {\r\n        return doctor[msg.sender];\r\n    }\r\n\r\n    function isPatient() public view returns (bool) {\r\n        return patient[msg.sender];\r\n    }\r\n\r\n    //Add Doctor\r\n\r\n    function addDoctor(\r\n        address _newDr,\r\n        string memory _docInfoHash\r\n    ) public onlyAdmin {\r\n        require(\r\n            !doctor[_newDr] && !patient[_newDr] && !admin[_newDr],\r\n            \"address already has a role\"\r\n        );\r\n        doctor[_newDr] = true;\r\n        drInfo[_newDr] = _docInfoHash;\r\n        Dr_ids.push(_newDr);\r\n    }\r\n\r\n    function removeDoctor(address _newDr) public onlyAdmin {\r\n        doctor[_newDr] = false;\r\n    }\r\n\r\n    //modified\r\n    function doctorList() public view returns (string[] memory) {\r\n        string[] memory list = new string[](Dr_ids.length);\r\n        uint c = 0;\r\n        for (uint8 i = 0; i < Dr_ids.length; i++) {\r\n            if (doctor[Dr_ids[i]] == true) {\r\n                list[c++] = drInfo[Dr_ids[i]];\r\n            }\r\n        }\r\n        return list;\r\n    }\r\n\r\n    //  Add patient\r\n\r\n    function givePermission(address _newDoctor) external onlyPatient {\r\n        access[msg.sender][_newDoctor] = true;\r\n    }\r\n\r\n    function removePermission(address _newDoctor) external onlyPatient {\r\n        access[msg.sender][_newDoctor] = false;\r\n    }\r\n\r\n    //new\r\n    // check Permission\r\n    //FIX\r\n    //// sender always patient\r\n    function checkPermission(address _drId) public view returns (bool) {\r\n        return access[msg.sender][_drId];\r\n    }\r\n\r\n    // Add patient Information to BlockChain\r\n\r\n    function addPatInfo(string memory _patInfoHash) public {\r\n        require(\r\n            !doctor[msg.sender] && !patient[msg.sender] && !admin[msg.sender],\r\n            \"address already has a role\"\r\n        );\r\n        patientInfo[msg.sender] = _patInfoHash;\r\n        patient[msg.sender] = true;\r\n        Pateint_ids.push(msg.sender);\r\n    }\r\n\r\n    function getPatientinfo(address _id) public view returns (string memory) {\r\n        return patientInfo[_id];\r\n    }\r\n\r\n    function getPatientList() public view returns (address[] memory) {\r\n        return Pateint_ids;\r\n    }\r\n\r\n    // Add Medical record to block chain\r\n\r\n    function addMedRecord(string memory _recHash, address _pat_id) public {\r\n        require(patient[msg.sender] == true, \"Only pateints add records\");\r\n\r\n        patientRecords[_pat_id].push(_recHash);\r\n    }\r\n\r\n    function deleteRecord(string memory _recHash) public {\r\n        string[] memory records = patientRecords[msg.sender];\r\n        string[] memory tempArr;\r\n        uint256 j = 0;\r\n        for (uint256 i = 0; i < records.length; i++) {\r\n            if (\r\n                keccak256(abi.encodePacked((records[i]))) !=\r\n                keccak256(abi.encodePacked((_recHash)))\r\n            ) {\r\n                tempArr[j] = records[i];\r\n                j++;\r\n            }\r\n        }\r\n        patientRecords[msg.sender] = tempArr;\r\n    }\r\n\r\n    // View Medical record return IPFS hash of record\r\n\r\n    function viewMedRec() public view returns (string[] memory) {\r\n        require(patient[msg.sender] == true, \"only Pateints can view record\");\r\n        return (patientRecords[msg.sender]);\r\n    }\r\n\r\n    function viewMedRecOfPatient(\r\n        address _pat_id\r\n    ) public view returns (string[] memory) {\r\n        require(\r\n            access[_pat_id][msg.sender] == true,\r\n            \"Only allowed Doctor Can Do That\"\r\n        );\r\n        return (patientRecords[_pat_id]);\r\n    }\r\n\r\n    /*\r\n    Modifiers\r\n*/\r\n\r\n    modifier onlyAdmin() {\r\n        require(admin[msg.sender] == true, \"Only Admin Can Do That\");\r\n        _;\r\n    }\r\n    modifier onlyDoctor() {\r\n        require(doctor[msg.sender] == true, \"Only Doctor Can Do That\");\r\n        _;\r\n    }\r\n    modifier onlyPatient() {\r\n        require(patient[msg.sender] == true, \"Only Patient Can Do That\");\r\n        _;\r\n    }\r\n\r\n    //  modifier onlyCreator(){\r\n    //    require(creator == msg.sender, \"Only Patient Can Do That\");\r\n    //    _;\r\n    //  }\r\n\r\n    modifier onlyAccessedId(address _person) {\r\n        require(\r\n            access[msg.sender][_person] == true,\r\n            \"Only accessed persons Can Do That\"\r\n        );\r\n        _;\r\n    }\r\n}\r\n",
  "sourcePath": "E:\\EHR 2.5 v2\\contracts\\Contract.sol",
  "compiler": {
    "name": "solc",
    "version": "0.8.17+commit.8df45f5f.Emscripten.clang"
  },
  "schemaVersion": "3.4.13",
  "updatedAt": "2023-06-09T16:32:36.947Z",
  "devdoc": {
    "kind": "dev",
    "methods": {},
    "version": 1
  },
  "userdoc": {
    "kind": "user",
    "methods": {},
    "version": 1
  }
}